:1000000011C100002BC1000029C1000027C1000060
:1000100025C1000023C1000021C100001FC1000054
:100020001DC100001BC1000019C100000C949011FB
:1000300015C1000013C1000011C100000FC1000074
:100040000DC100000BC1000009C100000C94D60BCB
:1000500005C1000003C1000001C10000FFC0000095
:10006000FDC00000FBC00000F9C00000F7C00000A8
:10007000F5C000001201100102000008EB034C2043
:1000800000000102000109024300020100C0320920
:10009000040000010202FF000524000110052401F4
:1000A000000004240200052406000107058303085C
:1000B000000209040100020A0000000705020240D4
:1000C00000000705810240000004030904180362D0
:1000D000007500730077006100720065002E0064F7
:1000E00000650000002803430055004C00650074C3
:1000F000006800200052004E0044004900530020D8
:10010000004300440043000000010101000201011E
:1001100000030101000401010006010100110101B9
:1001200000070101000A0101000B0101000C01019F
:10013000000D0101000E0101001101010014010177
:100140000001010200020102000301020004010299
:100150000005010200010101010201010103010189
:100160000104010101010102010201020103010276
:10017000014C55464120524E444953204164617020
:1001800074657200C0A86C01A11BC0A86C7FA11B84
:1001900002508B00000102000200020000030F1E4B
:1001A0002627000000030F1E2536386700030F25A1
:1001B0006740605000030F275188838100030F2799
:1001C00050C8C3C200270000000000000067000004
:1001D000000000000050000000000000008100004E
:1001E0000000000000C20000000000000032383FA4
:1001F0003F3F3F3F292E0647D3913E1A4501010656
:100200000010A9D68A751322C135040C38166C4328
:1002100040914650785610A90A00114100577F3F7F
:1002200098310B0011241FBECFEFD2E0DEBFCDBF4F
:1002300011E0A0E0B1E0ECE1F5E202C005900D9222
:10024000A234B107D9F712E0A2E4B1E001C01D92D7
:10025000AC39B107E1F748D10C948C12D1CEFB0137
:10026000DC0102C005900D9241505040D8F708952E
:10027000FB01DC0104C08D910190801921F44150F3
:100280005040C8F7881B990B0895FB01DC0102C0A0
:1002900001900D9241505040D8F70895DF92EF92AF
:1002A000FF920F931F937B018C01FB010995D82EC0
:1002B000C8010196F7010995982F8D2D1F910F9177
:1002C000FF90EF90DF900895DF92EF92FF920F93EF
:1002D0001F93D72E7A018C01FA010995C801019666
:1002E0006D2DF70109951F910F91FF90EF90DF9011
:1002F0000895813039F0813038F0823029F0833030
:1003000031F404C0449A089544980895449A089595
:10031000CF93DF93C82F80FF01C012D4C1FF01C06B
:1003200020D5DF91CF910895B1D4882311F081E0D9
:10033000089527D5811182E008950F931F93F4DF6C
:10034000082F882339F183E0D4DFCFD5882311F03B
:1003500018E00CC0BDD5882321F0102F10951B701C
:1003600005C0023011F012E001C011E0812FD0DF92
:1003700085E080935001802F8295807F810F80934C
:10038000510113FF05C06CD5882311F0802FC0DF09
:1003900082E0AFDF1F910F91089544C40895482F64
:1003A000562F8091F1008091F1008091F1008091B1
:1003B000F1003091F1002091F100922F80E0632F45
:1003C00070E0682B792B442321F0413009F04EC0B6
:1003D00012C0513209F04AC08091E800877F8093B3
:1003E000E80082E591E00E94CA0F8091E8008E7FCC
:1003F0008093E800E4C0513AC9F5E0911801F0910A
:10040000190184819581A681B7810097A105B10565
:1004100051F41092520181E090E0A0E0B0E08483BA
:100420009583A683B7832481358146815781CB018B
:10043000A0E0B0E0281739074A075B0708F4B901C4
:100440008091E800877F8093E80082E591E00E9438
:100450008D0F8091E8008B7F8093E800E091180178
:10046000F0911901148215821682178208950F9354
:1004700083E063E041E028E030E000E00E94C70E46
:1004800081E062E041E020E430E00E94C70E82E0BB
:1004900062E040E020E430E00E94C70E82E029DF05
:1004A0008DEC91E061E00E943E0E8DE991E061E00B
:1004B0000E943E0E0F9108958DEC91E060E00E9445
:1004C0003E0E8DE991E060E00E943E0E82E791E1F0
:1004D00060E00E943E0E80E00CCF82E791E161E097
:1004E0000E943E0E81E005CF1F93CF93DF930E94C1
:1004F000A20B0E940E0C8BEF91E00E94010B88234F
:1005000011F00E944D0B0E94330C0E94B00B3C9ADC
:1005100057D460E875E280E090E040E00E94471226
:1005200083E391E090939902809398020E94240CB7
:1005300080E0DFDE16E010938D020E94C00E109363
:100540008D02C0E0D1E007C08A81882319F0E881DC
:10055000F9810995249681E0C831D807A9F76897F1
:10056000FACFDA01923049F0933061F09130F9F42A
:10057000E4E7F0E022E130E01EC0E6E8F0E023E44A
:1005800030E019C0813049F0813018F0823079F4C0
:1005900008C0E9ECF0E0849107C0EDECF0E0849154
:1005A00003C0E5EEF0E08491282F30E004C0E0E0E5
:1005B000F0E020E030E0ED93FC93C9010895E09174
:1005C0001801F091190180819181A281B381843059
:1005D0009105A105B10509F4A1C085309105A105DA
:1005E000B10558F482309105A105B105C1F003971A
:1005F000A105B10509F0A3C288C086309105A10507
:10060000B10509F415C286309105A105B10508F4BC
:10061000C2C10897A105B10509F091C22DC221E020
:100620002093420182E090E0A0E0B0E88093520184
:1006300090935301A0935401B093550184E390E04B
:10064000A0E0B0E08093560190935701A093580129
:10065000B093590110925E0110925F0110926001F7
:100660001092610181E090E0A0E0B0E0809362012F
:1006700090936301A0936401B093650110926601A9
:1006800010926701109268011092690180936A01CB
:1006900090936B01A0936C01B0936D0110926E0169
:1006A00010926F011092700110927101809372018B
:1006B00090937301A0937401B093750180EE90E064
:1006C000A0E0B0E08093760190937701A093780149
:1006D000B093790110927A0110927B0110927C0103
:1006E00010927D0110927E0110927F011092800184
:1006F0001092810110928201109283011092840164
:1007000010928501209343010895109242011482B2
:1007100015821682178210924301089581E080931A
:10072000420162E571E020915E0130915F014091EC
:1007300060015091610184E090E0A0E0B0E8809316
:10074000520190935301A0935401B093550188E155
:1007500090E0A0E0B0E08093560190935701A09301
:100760005801B09359012D3081E0380781E04807E6
:1007700080E0580709F4B7C02E3081E0380781E0E7
:10078000480780E0580708F049C0263081E0380764
:1007900081E0480780E0580709F4A0C0273081E0D5
:1007A000380781E0480780E05807F8F4223081E0FC
:1007B000380781E0480780E0580709F4B7C02330C4
:1007C00081E0380781E0480780E0580738F421507D
:1007D00031404140504009F0C1C071C02550314006
:1007E0004140504008F0BAC0A1C02C3081E0380729
:1007F00081E0480780E0580708F06BC02A3061E0CC
:10080000360761E0460760E0560708F067C02750EA
:1008100031404140504009F0A1C06FC0263081E016
:10082000380782E0480780E0580710F5213061E082
:10083000360762E0460760E0560708F077C02131CE
:1008400081E0380781E0480780E0580709F477C065
:10085000243161E0360761E0460760E0560709F49D
:1008600065C02E5031404140504009F077C055C01E
:10087000243081E0380781E0480781E0580709F417
:1008800047C0253081E0380781E0480781E05807FC
:1008900058F421503140414051402230310541054A
:1008A000510508F05BC02EC02150314042405140FC
:1008B000233031054105510508F050C037C0CB0148
:1008C000489669E071E048E650E0C9DC88E690E0CF
:1008D00004C18FEF9FEFAFEFB0E035C084EB90E045
:1008E000A0E0B0E030C0CB01489661E771E043E1A1
:1008F00050E0B5DC83E190E0F0C080EA96E8A1E04A
:10090000B0E021C0CB01489667D286E090E0E5C018
:1009100081E090E0A0E0B0E016C0809144019091A9
:100920004501A0914601B09147010DC010926A01A6
:1009300010926B0110926C0110926D010CC084E357
:1009400091E0A0E0B0E080936A0190936B01A093E6
:100950006C01B0936D0184E090E0BFC08BEB90E040
:10096000A0E0B0EC80935E0190935F01A0936001E2
:10097000B0936101109262011092630110926401C0
:100980001092650110926601109267011092680141
:1009900010926901089581E08093420120915E01E7
:1009A00030915F01409160015091610185E090E0DC
:1009B000A0E0B0E88093520190935301A0935401BA
:1009C000B093550180E190E0A0E0B0E08093560143
:1009D00090935701A0935801B093590180916601FB
:1009E00090916701A0916801B09169012E3061E09A
:1009F000360761E0460760E0560739F02350314082
:100A00004140514009F05CC052C0FC01E65AFE4F23
:100A100080819181A281B3818093440190934501AB
:100A2000A0934601B093470182E0809343013FC009
:100A300081E08093420186E090E0A0E0B0E88093FE
:100A4000520190935301A0935401B093550180E15A
:100A500090E0A0E0B0E08093560190935701A093FE
:100A60005801B093590110925A0110925B011092F3
:100A70005C0110925D011BC081E08093420188E01F
:100A800090E0A0E0B0E88093520190935301A093CE
:100A90005401B093550180E190E0A0E0B0E0809374
:100AA000560190935701A0935801B09359011092A9
:100AB0005E0110925F011092600110926101089531
:100AC0008BEB90E0A0E0B0EC80935E0190935F012F
:100AD000A0936001B0936101089510925E0110929D
:100AE0005F011092600110926101A0E0B0E02091DE
:100AF0005601309157014091580150915901280FEA
:100B0000391F4A1F5B1F20935601309357014093B2
:100B10005801509359018093620190936301A0930F
:100B20006401B093650180E190E0A0E0B0E08093C3
:100B3000660190936701A0936801B09369010895DD
:100B4000DF93CF93CDB7DEB7AC970FB6F894DEBF87
:100B50000FBECDBF80914301823009F059C0E091B2
:100B60001801F091190184819581A681B7810097C0
:100B7000A105B10509F04CC081E08093E9008091A6
:100B8000E80085FF45C0FE0131968CE2DF011D9231
:100B90008A95E9F781E090E0A0E0B0E089839A834C
:100BA000AB83BC8380918602909187028C969C01D6
:100BB00040E050E08C972D833E834F83588724E29A
:100BC00030E040E050E029873A874B875C87A0E01F
:100BD000B0E08D879E87AF87B88BCF016CE270E065
:100BE0000E94310F6D857E8582ED91E00E94310F6C
:100BF0008091E8008F778093E80080914A0190917E
:100C00004B01019690934B0180934A0181E001C012
:100C100080E0AC960FB6F894DEBF0FBECDBFCF918B
:100C2000DF910895DF93CF93CDB7DEB728970FB646
:100C3000F894DEBF0FBECDBF83E08093E9008091C2
:100C4000E80085FF1AC0809142018823B1F0DE01DF
:100C50001196EAE1F1E088E001900D928150E1F710
:100C6000CE01019668E070E00E94310F8091E800AB
:100C70008F778093E8001092420128960FB6F8947F
:100C8000DEBF0FBECDBFCF91DF910895DF93CF932D
:100C9000CDB7DEB7AC970FB6F894DEBF0FBECDBFB1
:100CA00020914301223009F043C0E0911801F091F6
:100CB000190184819581A681B7810097A105B105AD
:100CC000B9F52093E9008091E80085FF31C0CE019D
:100CD00001966CE270E00E945F0F8D819E81AF8172
:100CE000B885853B9105A105B10530F08091EB00F9
:100CF00080628093EB001CC06D857E8582ED91E063
:100D00000E945F0F8091E8008F778093E8008D85C7
:100D10009E859093870280938602809148019091EE
:100D200049010196909349018093480181E001C0F7
:100D300080E0AC960FB6F894DEBF0FBECDBFCF916A
:100D4000DF91089582ED91E060E1B0D680914E018F
:100D500090914F01019690934F0180934E0181E055
:100D6000089582ED91E060918602A0D680914E01B7
:100D700090914F01019690934F0180934E0181E035
:100D800008951F9382ED91E051D20ED7182F88233A
:100D900089F082ED91E0612F4ED29093870280938B
:100DA000860280914C0190914D01019690934D01E6
:100DB00080934C01612F111161E0862F1F910895DE
:100DC000E0D551C7BC0184EF91E046E03DC4BC01D1
:100DD0008EEE91E046E038C4BC0184EF91E046E03D
:100DE00012C4BC018EEE91E046E00DC41F93CF9378
:100DF000DF93EB01BC01D695C79520E030E040E0E1
:100E000050E010E00DC0EE0FFF1FE60FF71F8081CE
:100E10009181A0E0B0E0280F391F4A1F5B1F1F5FC0
:100E2000E12FF0E0EC17FD0770F30BC0DA01C90108
:100E3000A070B0709A0144275527280F391F4A1F08
:100E40005B1FDA01C901807090700097A105B105A0
:100E500069F720953095C901DF91CF911F910895D1
:100E6000CF93DF93909186028091870281509640C4
:100E700058F19091DE018091DF0128E080309207E7
:100E800041F08650984001F580EE91E0BC0151D0D0
:100E900004C080EE91E0BC013ED1EC0118161906A9
:100EA0009CF4E2EDF1E0DF01169686E00D900192F0
:100EB0008150E1F788ED91E094DF2E96D093870280
:100EC000C093860281E001C080E0DF91CF91089558
:100ED00082ED91E062E271E046E050E0C9D99C0108
:100EE00080E0232B09F481E008950F931F93DF9393
:100EF000CF9300D000D000D0CDB7DEB78E010F5F0A
:100F00001F4FC8016EDF82ED91E0B80146E050E06E
:100F1000AFD99C0180E0232B09F481E026960FB61F
:100F2000F894DEBF0FBECDBFCF91DF911F910F911F
:100F30000895AF92BF92CF92DF92EF92FF920F93FC
:100F40001F93DF93CF93CDB7DEB72A970FB6F894F0
:100F5000DEBF0FBECDBFB62EA72E7C01FC01928155
:100F600083818050984009F06BC0F701968187819A
:100F7000019709F065C08E010F5F1F4FC80151D165
:100F800085E0C82ED12CCC0EDD1EC6012ADFC7019C
:100F90004896B80144E050E06BD9009749F0C7018A
:100FA0004296B60146E050E063D9009709F048C088
:100FB0004B2D5A2DD7018D919C911197FA01918358
:100FC0008083F70182819381FA0193838283F70101
:100FD0008481FA018483F7018581FA01858380E0A9
:100FE00092E0978386839A012E5E3F4F189686E0A3
:100FF0000D90F90101929F018150D1F7F70186858B
:101000009785A089B189FA01808F918FA28FB38FC4
:101010009A01285F3F4FDE01159686E00D90F90199
:1010200001929F018150D1F789819A81AB81BC8166
:10103000FA0186879787A08BB18B2CE130E002C044
:1010400020E030E0C9012A960FB6F894DEBF0FBE4B
:10105000CDBFCF91DF911F910F91FF90EF90DF9067
:10106000CF90BF90AF9008950F931F93CF93DF93CE
:10107000FC01EB018081883019F020E030E026C0CF
:10108000188219821B821A82848195819D838C83A8
:10109000868197819F838E83AF01485F5F4F009168
:1010A000860210918702041B150B0E521E4F9B01E6
:1010B000285F3F4FC901BA01A801E7D8085F1F4F59
:1010C000CE01B80193DE9B838A839801C901DF9129
:1010D000CF911F910F910895EF92FF921F93CF939D
:1010E000DF937C01C0E0D0E0F701EC0FFD1F108121
:1010F000CE0188519E4F85D2181711F080E005C0AF
:101100002196C430D10581F781E0DF91CF911F9105
:10111000FF90EF900895EF92FF920F931F93CF935C
:10112000DF937C01EB01FC0100810F704096D4DF5E
:10113000882389F4F70180898F3F09F059C081899C
:101140008F3F09F055C082898F3F09F051C08389D4
:101150008F3F09F04DC0202F30E0220F331F220FA8
:10116000331FF7018185813021F0813109F040C0C2
:1011700008C0BE016C5E7F4FC701820F931F74DFF2
:1011800008C02E0D3F1DAE014C5E5F4FC701B90177
:1011900098D09C01181619066CF58C010C5E1F4F37
:1011A0001A830B83198285E488831E821F821D8225
:1011B0001C821B861A86F7018185898780E88887CB
:1011C000248535854685578580899189A289B3898B
:1011D0008C879D87AE87BF87288B398B4A8B5B8B2B
:1011E000CE0164E170E002DE9B878A87980102C02D
:1011F00020E030E0C901DF91CF911F910F91FF9066
:10120000EF900895BC0182EE91E044E01DC2BC0164
:1012100088EE91E044E018C2BC0182EE91E044E027
:10122000F2C1BC0188EE91E044E0EDC19C01265D75
:101230003F4FC90108950F931F93CF93DF93EC01A4
:10124000062F613408F000E4CE010696CADDCE0117
:10125000C3DD88E090E09D878C8710E0C8014C9644
:10126000988B898B1F8685E48E871C8A1D8A1B8A32
:101270001A8A198E188E81E18F8B80E88E8BCE01B1
:101280004A96CFDFCE014E96C7DFCE010E9664E1BF
:1012900070E0ACDD998F888F1BA21AA286EE91E0D8
:1012A000F6D19CA38DA3C80108969EA38FA319A66F
:1012B00018A6065D1F4FC801DF91CF911F910F91B6
:1012C0000895CF92DF92EF92FF920F931F93CF93E7
:1012D000DF936C017B01EA01FB01128103818CEE3B
:1012E00091E0D5D108171907E9F4B701685F7F4F7E
:1012F000AE01485F5F4FC60121D0AC011816190638
:101300008CF428813981F7018281938199838883C4
:101310003B832A831F821E82CA0108969C838D8389
:101320009C0102C020E030E0C901DF91CF911F9104
:101330000F91FF90EF90DF90CF900895AF92BF9202
:10134000CF92DF92EF92FF920F931F93DF93CF9391
:1013500000D000D0CDB7DEB75C017B018A0186E00A
:10136000D82EFA01D2821382FB018081823609F4E1
:101370007BC08336F0F4893409F4DAC08A3480F40F
:10138000813409F4F2C0823438F4803309F48FC018
:101390008E3309F0F3C090C0853409F0EFC0ADC0C2
:1013A000843509F4B1C08136D1F18D3409F0E6C03D
:1013B000D3C08337D9F1843748F4853609F483C024
:1013C000803721F1833609F0D9C047C0853709F449
:1013D0003DC0853750F0863709F0D0C082E0FA0171
:1013E000838381E084838583CCC0D7D169837A836A
:1013F0008B839C8384E0F801838389819A81AB810C
:10140000BC8184839583A683B783BBC0FA01138212
:101410008EE7809350018FEF80935101B2C081E03D
:10142000FA01838380E184838DDCABC084E0FA0120
:10143000838380914801848380914A0185838091D0
:101440004C01868380914E0187839BC08CE0FA011A
:101450008383CA01049680D394C089E2FA0183830E
:10146000CA01049618D38DC081E0FA01838385E018
:10147000848320E030E040E25EE4449A80E090E043
:10148000FA013197F1F7019689319105C9F744982E
:1014900080E090E0FA013197F1F7019689319105EA
:1014A000C9F72F5F3F4F2530310539F76AC081E01A
:1014B000FA018383148224C081E0FA01838380EBE4
:1014C00084838EEF1EC08EE1FA0183836A01EE24CD
:1014D000FF2409C0C7018E519E4F93D0F60183832C
:1014E0000894E11CF11C0894C11CD11CF8018381F3
:1014F00090E0E816F90674F344C0FA011382CDD0E7
:101500008FEF809350013DC0CB0104967BDE86EEC9
:1015100091E0F701608596D087EE91E0F701618553
:1015200091D084E0F8018383C801049675DE29C058
:10153000CB0104966CDE8CEE91E0F701608582D0E1
:101540008DEE91E0F70161857DD084E0F801838321
:10155000C801049666DE15C0CB01049638DCF8019C
:10156000D382C80104963DDCCBCFCB0104962ADCA4
:10157000F801D382C80104962FDCC2CF85E1F801BF
:101580008283C50140964DDEF801238130E02C5F57
:101590003F4FC9010F900F900F900F90CF91DF91A7
:1015A0001F910F91FF90EF90DF90CF90BF90AF9081
:1015B00008959C01F999FECF32BD21BDF89A80B5FE
:1015C00008959C01F999FECF1FBA32BD21BD60BDBF
:1015D0000FB6F894FA9AF99A0FBE0895F999FECFCA
:1015E0001FBA92BD81BD60BD0FB6F894FA9AF99A00
:1015F0000FBE0895F999FECF92BD81BDF89A80B5CE
:101600000895F8CF0895DF92EF92FF920F931F9302
:10161000CF93DF937C01D42E8B01C0E0D0E008C0D3
:10162000CE018E0D9F1DE6DFF80181938F0121967B
:10163000CD15B0F3DF91CF911F910F91FF90EF90F7
:10164000DF900895CBCF0895DF92EF92FF920F9332
:101650001F93CF93DF937C01D42E8B01C0E0D0E0A9
:1016600008C0CE018E0D9F1DF80161918F01B6DF7C
:101670002196CD15B0F3DF91CF911F910F91FF907F
:10168000EF90DF90089569ED7AE00C944E01FBCF66
:10169000089541EE5AE00C946401CF93DF938EEFEE
:1016A00091E069E679E1F5DF8CEF91E062E070E0CE
:1016B000F0DF8BEF91E060E091DFC4EFD1E0FE015D
:1016C000EE55F040E491CE016E2F88DF219681E047
:1016D000CA3FD807A1F7C2EED1E0FE01EE55F040B7
:1016E000E491CE016E2F7ADF219681E0C63ED807C5
:1016F000A1F786EE91E061EA7BE1CBDFC8EED1E0B5
:10170000FE01EE55F040E491CE016E2F67DF219689
:1017100081E0CC3ED807A1F78CEE91E061EA7BE155
:10172000B8DFCEEED1E0FE01EE55F040E491CE01FF
:101730006E2F54DF219681E0C43FD807A1F7DF91D7
:10174000CF9108958EEF91E09EDF8956994109F07F
:10175000A4DF8CEF91E097DF029709F09ECF089508
:101760001092890210928A0210928B0210928C02BF
:1017700090E080E80FB6F894809361009093610048
:101780000FBE8AEF87BD84E085BD82E084BD809373
:101790006E00089510926E00089560918902709114
:1017A0008A0280918B0290918C0208951F920F9271
:1017B0000FB60F9211248F939F93AF93BF93809195
:1017C00088028F5F809388028D37A8F0809189020C
:1017D00090918A02A0918B02B0918C020196A11D7A
:1017E000B11D8093890290938A02A0938B02B093DB
:1017F0008C0210928802BF91AF919F918F910F90B0
:101800000FBE0F901F9018950895F89481E085BF42
:1018100082E085BFE0E0F8E10995089504B603FE93
:1018200006C08BEF91E0EDDE803B09F4EECF08952A
:101830008BEF91E060EB06DFADDFFFCF8BEF91E048
:1018400060E000DFA7DFFFCF84B7877F84BF2FE092
:1018500088E190E00FB6F894A895809360000FBEE1
:1018600020936000089584B7877F84BF88E10FB616
:10187000F89480936000109260000FBE0895A895C0
:1018800008950F931F93DF93CF9300D000D0CDB76F
:10189000DEB783DF69837A838B839C8302ED11E05B
:1018A000C801C4DCFC0189819A81AB81BC81808341
:1018B0009183A283B3838091510182958F70848339
:1018C000809151018F708583C80166E0B4DC9093EC
:1018D00087028093860234D90F900F900F900F905B
:1018E000CF91DF911F910F910895DF93CF9300D097
:1018F00000D0CDB7DEB751DF69837A838B839C83B9
:1019000082ED91E093DCFC0189819A81AB81BC81FD
:1019100080839183A283B383809151018483359620
:10192000ACE2B1E085E00D9001928150E1F782EDEB
:1019300091E06AE080DC909387028093860200D970
:101940000F900F900F900F90CF91DF91089580919D
:1019500050018E3751F08F3718F4853069F407C085
:101960008E3F49F08F3F41F404C0BFDF05C089DFDF
:1019700003C064DF01C05CDF10925001109251017E
:101980000895E4E6F0E080818B7F8083299A84B11A
:10199000876084B9239880E58CBD8DB581608DBD4D
:1019A00008958EBD0DB407FEFDCF8EB50895459800
:1019B0002B99FECF8EBD0DB407FEFDCF9EB520E066
:1019C00030E00BC0FB01E20FF31F80818EBD0DB430
:1019D00007FEFDCF8EB52F5F3F4F2417350790F3DD
:1019E000459A892F089545982B99FECF8EBD0DB449
:1019F00007FEFDCF9EB520E030E00BC01EBC0DB44D
:101A000007FEFDCF8EB5FB01E20FF31F80832F5F32
:101A10003F4F2417350790F3459A892F089545982D
:101A20002B99FECF8EBD0DB407FEFDCF8EB5459A26
:101A30000895FF920F931F93F82EF1DF082F8F2D3B
:101A4000EEDF03C08F2DEBDF012F182F0817D1F722
:101A5000802F1F910F91FF9008958DE3EACF8DEBBA
:101A6000E8CF459A80E5982F9A95F1F745988A95A1
:101A7000F1F7459A88E78A95F1F780E3D0DF88ECA3
:101A800090E00197F1F7459A08959C01462F8FEF5A
:101A9000B90150E0A8CFBC0180EC49E250E0A3CFEF
:101AA0009C01462F8FE7B90150E081CFCF92DF92A2
:101AB000EF92FF920F931F93DF93CF930F92CDB7C7
:101AC000DEB77C01698300E06E010894C11CD11C63
:101AD000C4DF182F90E0807790708034910589F0F2
:101AE000813491052CF4009739F0809749F509C0AD
:101AF0008037910529F521C08981081719F185E3FF
:101B00008EDF1F70002321F4C60161E0C9DF115090
:101B10004981212F30E0842F90E0801B91098217AA
:101B2000930714F4142F101B112391F2C701800F97
:101B3000911D612FB5DF010FCBCF8BE370DFC8CFD5
:101B40000981C6CF0F90CF91DF911F910F91FF9028
:101B5000EF90DF90CF9008950F931F93CF93DF9373
:101B60008C0145982B99FECFC0E0D0E09E01205D0E
:101B7000822F806C16DF80E014DFF801EC0FFD1F70
:101B800080832196CC30D10589F7459ADF91CF919A
:101B90001F910F91089545982B99FECF806C01DF1E
:101BA00080E0FFDE459A0895FF920F931F93CF9335
:101BB000DF93EC0100E0FF2452DF282F30E0207794
:101BC00030702031310529F02036310571F1232B99
:101BD00099F7182F1F7039F1002331F4113061F398
:101BE0008FE3D9DF082F1150412F50E0802F90E074
:101BF0002F2D30E0123038F0821B930B4817590715
:101C000039F0115005C0821B930B48175907A1F6F4
:101C1000CE018F0D911D612F38DFF10E002361F68B
:101C2000FF2051F604C0002311F08AE3F8DE80E0C3
:101C3000DF91CF911F910F91FF900895CF93DF9384
:101C400045982B99FECF80E4ACDEC4EFD1E0FE01D5
:101C50008491A7DE2196F2E0C332DF07C1F7459AEF
:101C6000DF91CF9108953D9A459AFBDEE7DF83E34C
:101C7000D6DE80ED97E00197F1F708959C01E0E052
:101C8000F1E008C0808191818217930711F462838B
:101C90000895349680918D0290E0880F991F880FE7
:101CA000991F80509F4FE817F90761F70895DF9358
:101CB000CF9300D0CDB7DEB72DD32FD3109294029F
:101CC000109292021092950210929102109290023C
:101CD00019BC89B5826089BD09B400FEFDCF809131
:101CE000D800982F9F779093D80080688093D80071
:101CF000809163008E7F809363008091D8008F7DF8
:101D00008093D80080E091E060E0AE014F5F5F4FCC
:101D10000E94B102892B31F0E981FA813796E49172
:101D2000E09332018091E0008E7F8093E00080910B
:101D3000E20081608093E2008091E20088608093FD
:101D4000E2000F900F90CF91DF910895809194025F
:101D5000882311F00E945C028091E00081608093F2
:101D6000E000D8D2DAD2109294021092930210922C
:101D700092028091D8008F778093D80019BC089583
:101D8000E5DF95DF81E080939302789408950F93C7
:101D90008093E9008091EB0081608093EB001092CA
:101DA000ED006295660F660F607C642B6093EC001B
:101DB0002930310510F480E00BC02131310510F4D9
:101DC00080E106C02132310510F080E301C080E2DD
:101DD0000260802B8093ED008091EE00881F8827A1
:101DE000881F0F9108951092F40090E09093E900FD
:101DF0001092F0001092E8008091ED008D7F8093AA
:101E0000ED008091EB008E7F8093EB009F5F95301B
:101E100069F708958091E1008B7F8093E10094E65B
:101E20001AC080919402882311F482E00895809171
:101E3000EB0085FF02C081E008958091E10082FF00
:101E40000AC08091E1008B7F8093E100992311F417
:101E500083E0089591508091E80085FFE2CF80E013
:101E60000895FF920F931F93CF93DF93182F092F9D
:101E7000EB01D0DFF82E8823D9F4812F902F9C011D
:101E8000890114C08091E80085FD0AC08091E800B6
:101E90008F778093E800BEDF882311F0F82E08C00A
:101EA000F80181918F018093F1002197209751F7DC
:101EB0008F2DDF91CF911F910F91FF900895FF9289
:101EC0000F931F93CF93DF93182F092FEB01A2DFFE
:101ED000F82E8823D9F4812F902F9C01890114C0FA
:101EE0008091E80085FD0AC08091E8008F7780939B
:101EF000E80090DF882311F0F82E08C08091F100EF
:101F0000F80181938F012197209751F78F2DDF9151
:101F1000CF911F910F91FF900895FC012091320104
:101F200091E01AC08091E80080FFFCCF06C081914B
:101F30008093F1006150704021F08091F20082178F
:101F4000B0F38091F20090E0821709F491E0809163
:101F5000E8008E7F8093E8006115710521F0809183
:101F6000E80082FFDFCF8091E80082FF02C081E0BD
:101F70000895992349F08091E80080FFFCCF80917B
:101F8000E8008E7F8093E8008091E80082FFFCCF1C
:101F900080E00895FC0114C08091E80082FFFCCF2E
:101FA00006C08091F10081936150704021F08091D2
:101FB000F2008823B1F78091E8008B7F8093E800DE
:101FC0006115710549F78091E80080FFFCCF80E042
:101FD00008950F931F93DF93CF9300D000D0CDB718
:101FE000DEB76091F1005091F100553009F494C0D2
:101FF000563048F4513009F44AC0513070F0533033
:1020000009F056C144C0583009F40EC1593009F4E2
:1020100026C1563009F04CC19AC0603819F06238B8
:1020200009F046C18091F1008091F1008091F100AA
:10203000603821F0623851F090E014C09091900225
:1020400080919102882371F092600CC08093E90026
:102050008091EB0090E025E0969587952A95E1F731
:10206000982F91701092E9008091E800877F80930B
:10207000E8009093F1001092F1008091E8008E7FCB
:102080008093E8008091E80082FFFCCFE2C06230DC
:1020900009F00EC18091F1004091F1007091F100C2
:1020A0006091F100342F20E090E0282B392B232B76
:1020B00009F001C180E0272F282B277009F4FBC00D
:1020C0002093E9008091EB0080FF1BC05130A1F408
:1020D0008091EB0080618093EB0081E090E002C092
:1020E000880F991F2A95E2F78093EA001092EA0080
:1020F0008091EB00886003C08091EB008062809348
:10210000EB001092E9008091E800877F8093E8005F
:102110008091E8008E7FA0C0662309F0C9C090912D
:10212000F1008091E800877F8093E8008091E800CB
:1021300080FFFCCF8091E8008E7F8093E800809143
:10214000E80080FFFCCF90689093E300B4C0862F36
:102150008058823008F0ACC04091F1006091F100ED
:102160002091F100E091F1000091F1001091F10057
:10217000962F80E050E07E2F60E030E0622B732BE2
:10218000842B952BAE014F5F5F4F0E94B102AC01D3
:10219000009709F490C08091E800877F8093E80061
:1021A000912F80E0202F30E0282B392B2417350782
:1021B00008F4A9016091320129813A8190E021C09F
:1021C0008091E80082FD45C08091E80080FFF8CF53
:1021D00009C0F9012F5F3F4FE491E093F1004150B6
:1021E000504021F08091F200861798F38091F20020
:1021F00090E0861709F491E08091E8008E7F80934B
:10220000E8004115510501F7992349F08091E80054
:1022100080FFFCCF8091E8008E7F8093E800809162
:10222000E80082FFFCCF15C0603809F041C0809102
:10223000E800877F8093E800809192028093F1000C
:102240008091E8008E7F8093E8008091E80082FF13
:10225000FCCF8091E8008B7F8093E8002CC0662340
:1022600039F51091F1000091920280E091E0AE0109
:102270004D5F5F4F0E94B102892BE9F0EB81FC8139
:102280007196E491E117B8F08091E800877F809320
:10229000E800109392028091E8008E7F8093E8001E
:1022A000002319F4112309F0DFD00E94370203C084
:1022B000852F0E94CF018091E80083FF0AC08091A2
:1022C000EB0080628093EB008091E800877F809331
:1022D000E8000F900F900F900F90CF91DF911F911A
:1022E0000F9108950F931F9380919402882379F0A2
:1022F0000091E9001092E9008091E80083FF04C09A
:102300001FB7F89466DE1FBF07700093E9001F91A6
:102310000F9108951092E20008951092E10008953F
:102320001F920F920FB60F9211240F932F933F938A
:102330004F935F936F937F938F939F93AF93BF93CD
:10234000EF93FF938091E10080FF25C08091E20030
:1023500080FF21C08091E1008E7F8093E100809119
:10236000E2008E7F8093E2008091E20080618093A2
:10237000E2008091D80080628093D80019BC81E08F
:102380008093950271D080919402882321F010925D
:1023900094020E945C028091E10084FF2BC0809136
:1023A000E20084FF27C019BC89B5826089BD09B4E9
:1023B00000FEFDCF8091D8008F7D8093D800809162
:1023C000E1008F7E8093E1008091E2008F7E809318
:1023D000E2008091E20081608093E20080919402AB
:1023E000882329F481E0809394020E946D02109268
:1023F00095023AD08091E10083FF24C08091E200F1
:1024000083FF20C08091E100877F8093E1001092DC
:1024100092028091E1008E7F8093E1008091E20042
:102420008E7F8093E2008091E20080618093E200E1
:10243000DADC2091320180E060E040E030E000E052
:10244000A6DC12D0FF91EF91BF91AF919F918F9138
:102450007F916F915F914F913F912F910F910F90CD
:102460000FBE0F901F9018950895982F8091C80067
:1024700085FFFCCF9093CE0080E090E0089580919E
:10248000C80087FFFCCF8091CE0090E008950F93A5
:102490001F938B019C01442311F480E001C082E072
:1024A0008093C80088E18093C90086E08093CA00C9
:1024B000539A5A9A60E271EA87E090E0A901980184
:1024C00009D0215030403093CD002093CC001F9193
:1024D0000F910895A1E21A2EAA1BBB1BFD010DC08E
:1024E000AA1FBB1FEE1FFF1FA217B307E407F507C4
:1024F00020F0A21BB30BE40BF50B661F771F881FA0
:10250000991F1A9469F760957095809590959B0135
:0C251000AC01BD01CF010895F894FFCF8D
:10251C003F0C010072110000CD0100009D01000074
:10252C00040C0000A70C01005201A10100000000E6
:10253C000000FFFFFFFFFFFFFFFFFFFF74657374D9
:10254C00000008000000030000000035123F1200DC
:02255C0000007D
:00000001FF
