:1000000008C1000022C1000020C100001EC1000084
:100010001CC100001AC1000018C1000016C1000078
:1000200014C1000012C1000010C100000C945D104A
:100030000CC100000AC1000008C1000006C1000098
:1000400004C1000002C1000000C100000C94AC0A11
:10005000FCC00000FAC00000F8C00000F6C00000BC
:10006000F4C00000F2C00000F0C00000EEC00000CC
:10007000ECC000001201100102000008EB034C204C
:1000800000000102000109024300020100C0320920
:10009000040000010202FF000524000110052401F4
:1000A000000004240200052406000107058303085C
:1000B000000209040100020A0000000705020240D4
:1000C00000000705810240000004030904180362D0
:1000D000007500730077006100720065002E0064F7
:1000E00000650000002803430055004C00650074C3
:1000F000006800200052004E0044004900530020D8
:10010000004300440043000000010101000201011E
:1001100000030101000401010006010100110101B9
:1001200000070101000A0101000B0101000C01019F
:10013000000D0101000E0101001101010014010177
:100140000001010200020102000301020004010299
:100150000005010200010101010201010103010189
:100160000104010101010102010201020103010276
:10017000014C55464120524E444953204164617020
:100180007465720002000200020000030F1E2627A1
:10019000000000030F1E2536386700030F25674057
:1001A000605000030F275188838100030F2750C838
:1001B000C3C200270000000000000067000000002C
:1001C000000000500000000000000081000000005E
:1001D000000000C20000000000000032383F3F3F36
:1001E0003F3F292E0647D3913E1A450101060010D4
:1001F000A9D68A751322C135040C38166C43409178
:100200004650785610A90A00114100577F3F983197
:100210000B0011241FBECFEFD2E0DEBFCDBF11E037
:10022000A0E0B1E0E6EBF2E202C005900D92A63547
:10023000B107D9F712E0A6E5B1E001C01D92A03BDD
:10024000B107E1F748D10C945911DACEFB01DC017A
:1002500002C005900D9241505040D8F70895FB011F
:10026000DC0104C08D910190801921F4415050406F
:10027000C8F7881B990B0895FB01DC0102C00190AF
:100280000D9241505040D8F70895DF92EF92FF92BF
:100290000F931F937B018C01FB010995D82EC80198
:1002A0000196F7010995982F8D2D1F910F91FF90C1
:1002B000EF90DF900895DF92EF92FF920F931F93DC
:1002C000D72E7A018C01FA010995C80101966D2D8E
:1002D000F70109951F910F91FF90EF90DF9008951E
:1002E000813039F0813038F0823029F0833031F4B8
:1002F00004C0449A089544980895449A0895CF9369
:10030000DF93C82F80FF01C00ED4C1FF01C019D5F3
:10031000DF91CF910895ACD4882311F081E0089546
:1003200020D5811182E008950F931F93F4DF082FE9
:10033000882339F183E0D4DFB5D5882311F018E0A4
:100340000CC0A3D5882321F0102F10951B7005C079
:10035000023011F012E001C011E0812FD0DF85E002
:1003600080936401802F8295807F810F8093650147
:1003700013FF05C051D5882311F0802FC0DF82E024
:10038000AFDF1F910F91089540C40895482F562F55
:100390008091F1008091F1008091F1008091F10055
:1003A0003091F1002091F100922F80E0632F70E0F6
:1003B000682B792B442321F0413009F04EC012C044
:1003C000513209F04AC08091E800877F8093E800AD
:1003D00086E691E00E94970E8091E8008E7F8093E0
:1003E000E800DCC0513AC9F5E0911801F09119011B
:1003F00084819581A681B7810097A105B10551F44B
:100400001092660181E090E0A0E0B0E084839583E3
:10041000A683B7832481358146815781CB01A0E033
:10042000B0E0281739074A075B0708F4B901809143
:10043000E800877F8093E80086E691E00E945A0EEC
:100440008091E8008B7F8093E800E0911801F091A3
:100450001901148215821682178208950F9383E082
:1004600063E041E028E030E000E00E94940D81E08C
:1004700062E041E020E430E00E94940D82E062E01E
:1004800040E020E430E00E94940D82E029DF84EC1B
:1004900091E061E00E940B0D84E991E061E00E942F
:1004A0000B0D0F91089584EC91E060E00E940B0D1C
:1004B00084E991E060E00E940B0D8FE390E160E041
:1004C0000E940B0D80E00CCF8FE390E161E00E9471
:1004D0000B0D81E005CF1F93CF93DF930E94780A25
:1004E0000E94E40A0E94070B0E94860A3C9A58D494
:1004F00060E875E280E090E040E00E94141187E43B
:1005000091E09093AD028093AC020E94F80A80E0E3
:10051000E7DE16E01093A1020E948D0D1093A10258
:10052000C0E0D1E007C08A81882319F0E881F98111
:100530000995249681E0C831D807A9F76897FACFC2
:10054000DA01923049F0933061F09130F9F4E4E748
:10055000F0E022E130E01EC0E6E8F0E023E430E025
:1005600019C0813049F0813018F0823079F408C028
:10057000E9ECF0E0849107C0EDECF0E0849103C079
:10058000E5EEF0E08491282F30E004C0E0E0F0E0F8
:1005900020E030E0ED93FC93C9010895E09118014B
:1005A000F091190180819181A281B38184309105FC
:1005B000A105B10509F4A1C085309105A105B105DA
:1005C00058F482309105A105B105C1F00397A1054A
:1005D000B10509F0A7C288C086309105A105B10513
:1005E00009F419C286309105A105B10508F4C6C108
:1005F0000897A105B10509F095C231C221E0209309
:10060000560182E090E0A0E0B0E88093660190930C
:100610006701A0936801B093690184E390E0A0E0D2
:10062000B0E080936A0190936B01A0936C01B0934A
:100630006D01109272011092730110927401109268
:10064000750181E090E0A0E0B0E0809376019093A6
:100650007701A0937801B093790110927A011092FA
:100660007B0110927C0110927D0180937E0190931A
:100670007F01A0938001B0938101109282011092BA
:1006800083011092840110928501809386019093DA
:100690008701A0938801B093890180EE90E0A0E0EB
:1006A000B0E080938A0190938B01A0938C01B0936A
:1006B0008D0110928E0110928F0110929001109274
:1006C0009101109292011092930110929401109254
:1006D0009501109296011092970110929801109234
:1006E00099012093570108951092560114821582A2
:1006F0001682178210925701089581E08093560167
:1007000066E671E0209172013091730140917401AD
:100710005091750184E090E0A0E0B0E8809366011C
:1007200090936701A0936801B093690188E190E01C
:10073000A0E0B0E080936A0190936B01A0936C01FC
:10074000B0936D012D3081E0380781E0480780E0EB
:10075000580709F4B7C02E3081E0380781E0480718
:1007600080E0580708F049C0263081E0380781E072
:10077000480780E0580709F4A0C0273081E0380717
:1007800081E0480780E05807F8F4223081E038071C
:1007900081E0480780E0580709F4BBC0233081E0BE
:1007A000380781E0480780E0580738F4215031408D
:1007B0004140504009F0C5C071C025503140414012
:1007C000504008F0BEC0A5C02C3081E0380781E061
:1007D000480780E0580708F06BC02A3061E0360710
:1007E00061E0460760E0560708F067C027503140D7
:1007F0004140504009F0A5C06FC0263081E0380765
:1008000082E0480780E0580710F5213061E03607A4
:1008100062E0460760E0560708F07BC0213181E0C6
:10082000380781E0480780E0580709F47BC024318D
:1008300061E0360761E0460760E0560709F469C0E9
:100840002E5031404140504009F07BC059C0243007
:1008500081E0380781E0480781E0580709F44BC080
:10086000253081E0380781E0480781E0580758F4D7
:100870002150314041405140223031054105510560
:1008800008F05FC02EC0215031404240514023301B
:1008900031054105510508F054C03BC0CB014896D5
:1008A00069E071E048E650E0D1DC88E690E008C1FC
:1008B0008FEF9FEFAFEFB0E039C084EB90E0A0E0A6
:1008C000B0E034C0CB01489661E771E043E150E00D
:1008D000BDDC83E190E0F4C080EA96E8A1E0B0E0FE
:1008E00025C0CB01489664E871E046E050E0AEDCFC
:1008F00086E090E0E5C081E090E0A0E0B0E016C0C6
:100900008091580190915901A0915A01B0915B01D9
:100910000DC010927E0110927F0110928001109202
:1009200081010CC084E391E0A0E0B0E080937E01FF
:1009300090937F01A0938001B093810184E090E0C7
:10094000BFC08BEB90E0A0E0B0EC8093720190937D
:100950007301A0937401B093750110927601109207
:100960007701109278011092790110927A01109219
:100970007B0110927C0110927D01089581E08093AB
:100980005601209172013091730140917401509190
:10099000750185E090E0A0E0B0E880936601909357
:1009A0006701A0936801B093690180E190E0A0E045
:1009B000B0E080936A0190936B01A0936C01B093B7
:1009C0006D0180917A0190917B01A0917C01B091A1
:1009D0007D012E3061E0360761E0460760E0560792
:1009E00039F0235031404140514009F05CC052C0C1
:1009F000FC01E259FE4F80819181A281B3818093F5
:100A0000580190935901A0935A01B0935B0182E081
:100A1000809357013FC081E08093560186E090E0CB
:100A2000A0E0B0E88093660190936701A09368010D
:100A3000B093690180E190E0A0E0B0E080936A01AA
:100A400090936B01A0936C01B0936D0110926E01B5
:100A500010926F0110927001109271011BC081E021
:100A60008093560188E090E0A0E0B0E880936601B2
:100A700090936701A0936801B093690180E190E0D1
:100A8000A0E0B0E080936A0190936B01A0936C01A9
:100A9000B0936D0110927201109273011092740163
:100AA0001092750108958BEB90E0A0E0B0EC80937C
:100AB000720190937301A0937401B093750108952E
:100AC00010927201109273011092740110927501CC
:100AD000A0E0B0E020916A0130916B0140916C017F
:100AE00050916D01280F391F4A1F5B1F20936A0127
:100AF00030936B0140936C0150936D0180937601AC
:100B000090937701A0937801B093790180E190E010
:100B1000A0E0B0E080937A0190937B01A0937C01E8
:100B2000B0937D010895DF93CF93CDB7DEB7AC9737
:100B30000FB6F894DEBF0FBECDBF80915701823053
:100B400009F059C0E0911801F09119018481958153
:100B5000A681B7810097A105B10509F04CC081E0DD
:100B60008093E9008091E80085FF45C0FE01319641
:100B70008CE2DF011D928A95E9F781E090E0A0E028
:100B8000B0E089839A83AB83BC8380919A02909171
:100B90009B028C969C0140E050E08C972D833E8315
:100BA0004F83588724E230E040E050E029873A87BD
:100BB0004B875C87A0E0B0E08D879E87AF87B88BBE
:100BC000CF016CE270E00E94FE0D6D857E8586EEA1
:100BD00091E00E94FE0D8091E8008F778093E800FD
:100BE00080915E0190915F01019690935F018093E7
:100BF0005E0181E001C080E0AC960FB6F894DEBFE4
:100C00000FBECDBFCF91DF910895DF93CF93CDB7C6
:100C1000DEB728970FB6F894DEBF0FBECDBF83E0D6
:100C20008093E9008091E80085FF19C0809156010A
:100C30008823A9F0DE011196EAE1F1E088E0019055
:100C40000D928150E1F7CE01019668E070E0D6D7B1
:100C50008091E8008F778093E800109256012896E3
:100C60000FB6F894DEBF0FBECDBFCF91DF910895D0
:100C7000DF93CF93CDB7DEB7AC970FB6F894DEBF56
:100C80000FBECDBF20915701223009F041C0E09145
:100C90001801F091190184819581A681B78100978F
:100CA000A105B105A9F52093E9008091E80085FF31
:100CB0002FC0CE0101966CE270E0CED78D819E816F
:100CC000AF81B885853B9105A105B10530F08091D4
:100CD000EB0080628093EB001BC06D857E8586EE05
:100CE00091E0BAD78091E8008F778093E8008D85F6
:100CF0009E8590939B0280939A0280915C019091D3
:100D00005D01019690935D0180935C0181E001C0DB
:100D100080E0AC960FB6F894DEBF0FBECDBFCF918A
:100D2000DF91089586EE91E060E18DD580916201BA
:100D3000909163010196909363018093620181E039
:100D4000089586EE91E060919A027DD580916201CE
:100D5000909163010196909363018093620181E019
:100D600008951F9386EE91E0C6D1EBD5182F882306
:100D700089F086EE91E0612FC3D190939B0280931E
:100D80009A028091600190916101019690936101B6
:100D900080936001612F111161E0862F1F910895EA
:100DA000BDD42EC61F93CF93DF93EB01BC01D69524
:100DB000C79520E030E040E050E010E00DC0EE0FBD
:100DC000FF1FE60FF71F80819181A0E0B0E0280FA0
:100DD000391F4A1F5B1F1F5FE12FF0E0EC17FD0773
:100DE00070F30BC0DA01C901A070B0709A014427FA
:100DF0005527280F391F4A1F5B1FDA01C901807070
:100E000090700097A105B10569F720953095C9014B
:100E1000DF91CF911F91089590919A0280919B024A
:100E20008150964080F19091F2018091F30128E089
:100E30008030920741F08650984029F584EF91E088
:100E4000BC013DD004C084EF91E0BC01DED0181697
:100E50001906CCF4E6EEF1E0DF01169626E00D90DF
:100E600001922150E1F7ACEEB1E0E2E2F1E026E0E0
:100E700001900D922150E1F70E9690939B02809382
:100E80009A0281E0089580E0089586EE91E06CE298
:100E900071E046E050E0E3D99C0180E0232B09F4A7
:100EA00081E0089586EE91E062E271E046E050E074
:100EB000D6D99C0180E0232B09F481E008950F939B
:100EC0001F93CF93DF93162F072FEC019A818B810D
:100ED0008050984009F059C09E818F81019709F098
:100EE00054C0CE01489668E271E044E050E0B7D9C2
:100EF000009751F0CE01429662E271E046E050E088
:100F0000AED9009709F041C0E12FF02F8881998177
:100F1000918380838A819B81938382838C81848364
:100F20008D81858380E092E0978386839F012E5E8A
:100F30003F4FAE01485F5F4F86E0DA010D90AD0193
:100F4000D9010D929D018150C1F78E859F85A88999
:100F5000B989808F918FA28FB38FEF012896A2E27B
:100F6000B1E086E00D9009928150E1F7809128016F
:100F700090912901A0912A01B0912B018687978732
:100F8000A08BB18B2CE130E002C020E030E0C90141
:100F9000DF91CF911F910F9108950F931F93CF93DE
:100FA000DF93FC01EB018081883019F020E030E014
:100FB00026C0188219821B821A82848195819D83A2
:100FC0008C83868197819F838E83AF01485F5F4FBB
:100FD00000919A0210919B02041B150B0A511E4F9F
:100FE0009B01285F3F4FC901BA01A80145D9085F9D
:100FF0001F4FCE01B801D6DE9B838A839801C901B9
:10100000DF91CF911F910F910895DF92EF92FF92A0
:101010000F931F93CF93DF937C01EB01FC01D080F2
:10102000FFE0DF228C01005F1F4FC80168E271E022
:1010300044E050E014D9009741F0C80162E371E048
:1010400044E050E00CD9009761F42D2D30E0220FE0
:10105000331F220F331FF7018185813029F0813141
:1010600059F020E030E03EC0BE016C5E7F4FC7010A
:10107000820F931F92DF08C02E0D3F1DAE014C5E04
:101080005F4FC701B901B5D09C011816190654F578
:101090008C010C5E1F4F1A830B83198285E48883B1
:1010A0001E821F821D821C821B861A86F701818583
:1010B000898780E888872485358546855785808996
:1010C0009189A289B3898C879D87AE87BF87288B3A
:1010D000398B4A8B5B8BCE0164E170E063DE9B87CA
:1010E0008A879801C901DF91CF911F910F91FF90DD
:1010F000EF90DF9008959C01265D3F4FC901089550
:10110000EF92FF920F931F93DF93CF9300D000D005
:1011100000D0CDB7DEB77C01DE011196EAE3F1E045
:1011200086E001900D928150E1F7613408F060E4AF
:10113000D7011696E2E2F1E086E001900D9281502F
:10114000E1F7D701FE01319686E001900D928150C2
:10115000E1F788E090E0F70195878487062F10E09B
:10116000C8014C96908B818B178685E48687148AFC
:10117000158A138A128A118E108E81E1878B80E87E
:10118000868B8091280190912901A0912A01B0912C
:101190002B01828F938FA48FB58F80EC868F88EA86
:1011A000878F8CE680A381E081A3C7010E9664E15E
:1011B00070E0F8DDF701918F808F13A212A28BE10E
:1011C00091EA95A384A3C801089696A387A311A6C4
:1011D00010A6065D1F4FC80126960FB6F894DEBF15
:1011E0000FBECDBFCF91DF911F910F91FF90EF9078
:1011F00008950F931F93CF93DF939C018B01EA0116
:10120000FB0192818381815A9B41D9F4685F7F4FB2
:10121000485F5F4FC9011DD0AC01181619068CF448
:1012200028813981F80182819381998388833B8366
:101230002A831F821E82CA0108969C838D839C018B
:1012400002C020E030E0C901DF91CF911F910F91E2
:101250000895AF92BF92CF92DF92EF92FF920F93D9
:101260001F93DF93CF9300D000D0CDB7DEB75C01E2
:10127000DB018A0186E0FA018283138294E0E92E81
:10128000F12CE40EF51E80E8F70111928A95E9F73A
:10129000EC91E93609F452C0EA36C8F4E23609F4B2
:1012A0007FC0E33668F4E03309F444C0E03308F467
:1012B000B8C0EE3309F497C0EF3309F0B2C031C0C3
:1012C000E33609F460C0E53609F0ABC092C0E437FC
:1012D000B1F0E53738F4E03709F45BC0E33709F0E3
:1012E000A0C03BC0E53709F448C0E63709F099C013
:1012F00082E0FA01838381E08483858395C023D1D2
:1013000069837A838B839C8384E0F801838389815A
:101310009A81AB81BC81F70180839183A283B383DF
:1013200083C0FA0113828EE7809364018FEF80936C
:1013300065017AC0FA011382CDD076C084E0FA014B
:101340008383809128018483809129018583809102
:101350002A01868380912B010EC084E0FA018383E9
:1013600080915C01848380915E018583809160011E
:10137000868380916201878357C08CE0FA01838362
:10138000C701B7D251C089E2FA018383C70150D2A5
:101390004BC081E0FA01838380E18483C3DC44C0D5
:1013A00081E0FA01838385E0848320E030E040E23D
:1013B0005EE4449A80E090E0FA013197F1F70196FB
:1013C00089319105C9F7449880E090E0FA0131979E
:1013D000F1F7019689319105C9F72F5F3F4F25300D
:1013E000310539F721C0FA0113828FEF8093640130
:1013F0001BC085E0FA0183836A018BEFE82E81E050
:10140000F82EC7015BD0F60184830894E11CF11C1F
:101410000894C11CD11CF0E0EF16F2E0FF0689F73A
:1014200003C085E1F8018283809128019091290110
:10143000A0912A01B0912B01F501808B918BA28B99
:10144000B38BF801238130E02C5F3F4FC9010F902F
:101450000F900F900F90CF91DF911F910F91FF9000
:10146000EF90DF90CF90BF90AF9008959C01F999D5
:10147000FECF32BD21BDF89A80B508959C01F9993F
:10148000FECF1FBA32BD21BD60BD0FB6F894FA9AE7
:10149000F99A0FBE0895F999FECF1FBA92BD81BD8A
:1014A00060BD0FB6F894FA9AF99A0FBE0895F999AB
:1014B000FECF92BD81BDF89A80B50895F8CF08950A
:1014C000EACF089566E37AE00C9445014EE35AE0D2
:1014D0000C945B018EEF91E069E679E1F7DF8CEF28
:1014E00091E061E070E0F2DF8BEF91E060E0D3CF5C
:1014F0008EEF91E0E7DF8956994109F0EBDF8CEF41
:1015000091E0E0DF019709F0E5CF089510929D0288
:1015100010929E0210929F021092A00290E080E82A
:101520000FB6F89480936100909361000FBE8AEF2C
:1015300087BD84E085BD82E084BD80936E00089500
:1015400010926E00089560919D0270919E028091AC
:101550009F029091A00208951F920F920FB60F92D2
:1015600011248F939F93AF93BF9380919C028F5FC1
:1015700080939C028D37A8F080919D0290919E02ED
:10158000A0919F02B091A0020196A11DB11D809370
:101590009D0290939E02A0939F02B093A00210928E
:1015A0009C02BF91AF919F918F910F900FBE0F90B2
:1015B0001F9018950895F89481E085BF82E085BF5B
:1015C000E0E0F8E10995089504B603FE0AC08BEF48
:1015D00091E074DF803B29F48BEF91E060E070DFF5
:1015E000EACF08958BEF91E060EB6ADFA9DFFFCFD0
:1015F00084B7877F84BF2FE088E190E00FB6F8942E
:10160000A895809360000FBE20936000089584B772
:10161000877F84BF88E10FB6F894809360001092B2
:1016200060000FBE0895A89508950F931F93DF9350
:10163000CF9300D000D0CDB7DEB785DF69837A8342
:101640008B839C8306EE11E0C80155DDFC01898186
:101650009A81AB81BC8180839183A283B383809183
:10166000650182958F708483809165018F70858379
:10167000C80166E045DD90939B0280939A0253DA9D
:101680000F900F900F900F90CF91DF911F910F91BE
:101690000895DF93CF9300D000D0CDB7DEB753DFEE
:1016A00069837A838B839C8386EE91E024DDFC0141
:1016B00089819A81AB81BC8180839183A283B3832A
:1016C0008091650184833596A0E4B1E085E00D90BA
:1016D00001928150E1F786EE91E06AE011DD90938E
:1016E0009B0280939A021FDA0F900F900F900F9039
:1016F000CF91DF910895809164018E3729F08F3F5B
:1017000039F0853031F402C0C4DF03C08EDF01C080
:1017100069DF10926401109265010895E4E6F0E03B
:1017200080818B7F8083299A84B1876084B92398D4
:1017300080E58CBD8DB581608DBD08958EBD0DB4E5
:1017400007FEFDCF8EB5089545982B99FECF8EBD2F
:101750000DB407FEFDCF9EB520E030E00BC0FB01CD
:10176000E20FF31F80818EBD0DB407FEFDCF8EB555
:101770002F5F3F4F2417350790F3459A892F08951F
:1017800045982B99FECF8EBD0DB407FEFDCF9EB5BB
:1017900020E030E00BC01EBC0DB407FEFDCF8EB5BF
:1017A000FB01E20FF31F80832F5F3F4F24173507A4
:1017B00090F3459A892F089545982B99FECF8EBDB9
:1017C0000DB407FEFDCF8EB5459A0895FF920F9395
:1017D0001F93F82EF1DF082F8F2DEEDF03C08F2D22
:1017E000EBDF012F182F0817D1F7802F1F910F91D2
:1017F000FF9008958DE3EACF8DEBE8CF459A80E521
:10180000982F9A95F1F745988A95F1F7459A88E7C8
:101810008A95F1F780E3D0DF88EC90E00197F1F74B
:10182000459A08959C01462F8FEFB90150E0A8CF4B
:10183000BC0180EC49E250E0A3CF9C01462F8FE72A
:10184000B90150E081CFCF92DF92EF92FF920F93D8
:101850001F93DF93CF930F92CDB7DEB77C016983DF
:1018600000E06E010894C11CD11CC4DF182F90E069
:10187000807790708034910589F0813491052CF443
:10188000009739F0809749F509C08037910529F50F
:1018900021C08981081719F185E38EDF1F700023AD
:1018A00021F4C60161E0C9DF11504981212F30E0E8
:1018B000842F90E0801B91098217930714F4142F52
:1018C000101B112391F2C701800F911D612FB5DF0D
:1018D000010FCBCF8BE370DFC8CF0981C6CF0F904C
:1018E000CF91DF911F910F91FF90EF90DF90CF90FC
:1018F00008950F931F93CF93DF938C0145982B99F5
:10190000FECFC0E0D0E09E01205D822F806C16DF0C
:1019100080E014DFF801EC0FFD1F80832196CC30AE
:10192000D10589F7459ADF91CF911F910F910895C5
:1019300045982B99FECF806C01DF80E0FFDE459A51
:101940000895FF920F931F93CF93DF93EC0100E074
:10195000FF2452DF282F30E020773070203131050E
:1019600029F02036310571F1232B99F7182F1F70BC
:1019700039F1002331F4113061F38FE3D9DF082FFF
:101980001150412F50E0802F90E02F2D30E0123089
:1019900038F0821B930B4817590739F0115005C0D6
:1019A000821B930B48175907A1F6CE018F0D911D8D
:1019B000612F38DFF10E002361F6FF2051F604C0DD
:1019C000002311F08AE3F8DE80E0DF91CF911F91D0
:1019D0000F91FF900895CF93DF9345982B99FECFF9
:1019E00080E4ACDEC2EED1E0FE018491A7DE219658
:1019F000F2E0C131DF07C1F7459ADF91CF91089539
:101A00003D9A459AFBDEE7DF83E3D6DE80ED97E083
:101A10000197F1F708959C01E0E0F1E008C08081B2
:101A200091818217930711F462830895349680910F
:101A3000A10290E0880F991F880F991F80509F4F37
:101A4000E817F90761F70895DF93CF9300D0CDB77A
:101A5000DEB72DD32FD31092A8021092A6021092B7
:101A6000A9021092A5021092A40219BC89B5826045
:101A700089BD09B400FEFDCF8091D800982F9F77D3
:101A80009093D80080688093D800809163008E7F07
:101A9000809363008091D8008F7D8093D80080E090
:101AA00091E060E0AE014F5F5F4F0E94A002892B82
:101AB00031F0E981FA813796E491E0934601809113
:101AC000E0008E7F8093E0008091E200816080934F
:101AD000E2008091E20088608093E2000F900F9016
:101AE000CF91DF9108958091A802882311F00E9480
:101AF00053028091E00081608093E000D8D2DAD276
:101B00001092A8021092A7021092A6028091D8000B
:101B10008F778093D80019BC0895E5DF95DF81E0C9
:101B20008093A702789408950F938093E9008091A1
:101B3000EB0081608093EB001092ED006295660FE0
:101B4000660F607C642B6093EC002930310510F443
:101B500080E00BC02131310510F480E106C0213254
:101B6000310510F080E301C080E20260802B809399
:101B7000ED008091EE00881F8827881F0F9108953F
:101B80001092F40090E09093E9001092F00010920F
:101B9000E8008091ED008D7F8093ED008091EB0057
:101BA0008E7F8093EB009F5F953069F70895809159
:101BB000E1008B7F8093E10094E61AC08091A80237
:101BC000882311F482E008958091EB0085FF02C024
:101BD00081E008958091E10082FF0AC08091E100D8
:101BE0008B7F8093E100992311F483E00895915055
:101BF0008091E80085FFE2CF80E00895FF920F9387
:101C00001F93CF93DF93182F092FEB01D0DFF82E0E
:101C10008823D9F4812F902F9C01890114C08091D1
:101C2000E80085FD0AC08091E8008F778093E80086
:101C3000BEDF882311F0F82E08C0F80181918F01D2
:101C40008093F1002197209751F78F2DDF91CF914D
:101C50001F910F91FF900895FF920F931F93CF93C1
:101C6000DF93182F092FEB01A2DFF82E8823D9F478
:101C7000812F902F9C01890114C08091E80085FD7F
:101C80000AC08091E8008F778093E80090DF882376
:101C900011F0F82E08C08091F100F80181938F01B6
:101CA0002197209751F78F2DDF91CF911F910F91A1
:101CB000FF900895FC012091460191E01AC08091A7
:101CC000E80080FFFCCF06C081918093F100615055
:101CD000704021F08091F2008217B0F38091F20001
:101CE00090E0821709F491E08091E8008E7F809364
:101CF000E8006115710521F08091E80082FFDFCFD7
:101D00008091E80082FF02C081E00895992349F0A4
:101D10008091E80080FFFCCF8091E8008E7F809367
:101D2000E8008091E80082FFFCCF80E00895FC018C
:101D300014C08091E80082FFFCCF06C08091F100C2
:101D400081936150704021F08091F2008823B1F7B7
:101D50008091E8008B7F8093E8006115710549F759
:101D60008091E80080FFFCCF80E008950F931F93DF
:101D7000DF93CF9300D000D0CDB7DEB76091F100F4
:101D80005091F100553009F494C0563048F4513068
:101D900009F44AC0513070F0533009F056C144C0C4
:101DA000583009F40EC1593009F426C1563009F0F3
:101DB0004CC19AC0603819F0623809F046C1809170
:101DC000F1008091F1008091F100603821F06238DB
:101DD00051F090E014C09091A4028091A502882354
:101DE00071F092600CC08093E9008091EB0090E06C
:101DF00025E0969587952A95E1F7982F9170109296
:101E0000E9008091E800877F8093E8009093F100DB
:101E10001092F1008091E8008E7F8093E80080911D
:101E2000E80082FFFCCFE2C0623009F00EC1809171
:101E3000F1004091F1007091F1006091F100342FB8
:101E400020E090E0282B392B232B09F001C180E002
:101E5000272F282B277009F4FBC02093E9008091DD
:101E6000EB0080FF1BC05130A1F48091EB0080613A
:101E70008093EB0081E090E002C0880F991F2A95C3
:101E8000E2F78093EA001092EA008091EB0088600C
:101E900003C08091EB0080628093EB001092E90018
:101EA0008091E800877F8093E8008091E8008E7F32
:101EB000A0C0662309F0C9C09091F1008091E800AC
:101EC000877F8093E8008091E80080FFFCCF8091BD
:101ED000E8008E7F8093E8008091E80080FFFCCFCF
:101EE00090689093E300B4C0862F8058823008F049
:101EF000ACC04091F1006091F1002091F100E091BF
:101F0000F1000091F1001091F100962F80E050E077
:101F10007E2F60E030E0622B732B842B952BAE017B
:101F20004F5F5F4F0E94A002AC01009709F490C080
:101F30008091E800877F8093E800912F80E0202F38
:101F400030E0282B392B2417350708F4A9016091BC
:101F5000460129813A8190E021C08091E80082FD0C
:101F600045C08091E80080FFF8CF09C0F9012F5FDC
:101F70003F4FE491E093F1004150504021F08091B7
:101F8000F200861798F38091F20090E0861709F42A
:101F900091E08091E8008E7F8093E8004115510523
:101FA00001F7992349F08091E80080FFFCCF8091F0
:101FB000E8008E7F8093E8008091E80082FFFCCFEC
:101FC00015C0603809F041C08091E800877F809398
:101FD000E8008091A6028093F1008091E8008E7F56
:101FE0008093E8008091E80082FFFCCF8091E800B8
:101FF0008B7F8093E8002CC0662339F51091F100A7
:102000000091A60280E091E0AE014D5F5F4F0E941B
:10201000A002892BE9F0EB81FC817196E491E11734
:10202000B8F08091E800877F8093E8001093A602C3
:102030008091E8008E7F8093E800002319F411233B
:1020400009F0DFD00E942E0203C0852F0E94C60136
:102050008091E80083FF0AC08091EB00806280934A
:10206000EB008091E800877F8093E8000F900F904D
:102070000F900F90CF91DF911F910F9108950F93C3
:102080001F938091A802882379F00091E9001092B3
:10209000E9008091E80083FF04C01FB7F89466DE72
:1020A0001FBF07700093E9001F910F9108951092D0
:1020B000E20008951092E10008951F920F920FB66A
:1020C0000F9211240F932F933F934F935F936F932E
:1020D0007F938F939F93AF93BF93EF93FF938091E1
:1020E000E10080FF25C08091E20080FF21C0809147
:1020F000E1008E7F8093E1008091E2008E7F8093EB
:10210000E2008091E20080618093E2008091D8003B
:1021100080628093D80019BC81E08093A90271D0BD
:102120008091A802882321F01092A8020E945302F5
:102130008091E10084FF2BC08091E20084FF27C0E2
:1021400019BC89B5826089BD09B400FEFDCF8091BC
:10215000D8008F7D8093D8008091E1008F7E80939E
:10216000E1008091E2008F7E8093E2008091E200A6
:1021700081608093E2008091A802882329F481E0A5
:102180008093A8020E9464021092A9023AD0809122
:10219000E10083FF24C08091E20083FF20C0809192
:1021A000E100877F8093E1001092A6028091E10018
:1021B0008E7F8093E1008091E2008E7F8093E20029
:1021C0008091E20080618093E200DADC2091460198
:1021D00080E060E040E030E000E0A6DC12D0FF915B
:1021E000EF91BF91AF919F918F917F916F915F918F
:1021F0004F913F912F910F910F900FBE0F901F9015
:1022000018950895982F8091C80085FFFCCF909372
:10221000CE0080E090E008958091C80087FFFCCF59
:102220008091CE0090E008950F931F938B019C0145
:10223000442311F480E001C082E08093C80088E16B
:102240008093C90086E08093CA00539A5A9A60E24C
:1022500071EA87E090E0A901980109D0215030404F
:102260003093CD002093CC001F910F910895A1E2EF
:102270001A2EAA1BBB1BFD010DC0AA1FBB1FEE1F00
:10228000FF1FA217B307E407F50720F0A21BB30B4B
:10229000E40BF50B661F771F881F991F1A9469F7C7
:1022A00060957095809590959B01AC01BD01CF0123
:0622B0000895F894FFCF31
:1022B600130B01003F100000C40100009401000050
:1022C600DA0A00007B0B01006601A1010000000094
:1022D600000002508B000001C0A86C7FFFFFFFFFCB
:1022E600FFFFFFFFFFFFC0A86C0102000200020013
:1022F600746573740000080000000300000000020B
:06230600110C11000000A3
:00000001FF
